:0805A80012052A12051680FB62
:1005160012022B8F12E512600A12053EAD12E4FF9D
:030526001202A915
:0105290022AF
:100330007D017F071202A97D097F061202A9E4FD53
:100340007F051202A97D037F041202A97D047F03A9
:100350001202A97D017F021202A97D017F01120212
:08036000A97D07E4FF0202A9D8
:1003A000AF157E00BE030BBFE8081204D78F16E41A
:1003B000F515E51675F00A84FDE51675F00A8485D5
:0E03C000F0177F071202A9AD177F060202A9EF
:10053E007F051202F97580FF7FC87E0012046BE4FE
:03054E00F5802213
:0404A6007F057E0050
:1004AA00EF1FAA0670011E4A600BE4FDEDC3940C0F
:0504BA0050EE0D80F77B
:0104BF00221A
:100368007FCC12044D7F4412044D7FC87E001204D6
:01037800AADA
:10037900C200D2947F0C7E001204AAC2947F507EE0
:10038900001204AAD2947F0A7E001204AAA29492AF
:06039900001204A6A20000
:01039F00223B
:02044D00A907FD
:10044F00E4FBC294E91392941204A6D294E9C31365
:0C045F00F90BBB08ED7F057E000204AA2B
:0F0424007FCC12044D7FBE12044D120433A90782
:10043300E4FBC294ECC313FCD294309403430480D2
:090443001204A60BBB08EBAF0488
:01044C00228D
:1003FA00120379120368120424EF75F010A4FFAEF9
:10040A00F0E9C4540F4207E4AD07AC0612010EE44A
:09041A00FBFA7980783D12000321
:0104230022B6
:1004D700120379120368120424EFC454F0FFE9C42D
:0404E700540F420765
:0104EB0022EE
:0702F2001202F97580FF0FF5
:1002F900EF24FB601314601914601F24037024E5B4
:10030900A0541F4480F5A022E5A0541F44A0F5A0E5
:1003190022E5A0541F44C0F5A022E5A0541F44E0E3
:07032900F5A02253A01F22E2
:10052A007F041202F2E4F5800F1202F27580FFE4F2
:04053A00FF0202F9C1
:10046B00D3EF9400EE940040147D4D7C03ED1D7092
:0D047B00011CED4C70F7EF1F70E61E80E3D2
:010488002251
:04059000D2A07F0571
:0805940000AE071FEE70F92212
:0F057400D2A1120590C2A17F05120594C2A02248
:0C059C00C2A1120590D2A17F05020594B7
:1004C000C2A0A20192A17F05120594120590C2A0BC
:0704D000D2A17F0502059493
:10056300120590A2A19202C2A07F05120594A202D5
:010573002265
:0203CE00AD0779
:1003D000E4FCC2A07F05120594ED30E704D2A180B1
:1003E00002C2A17F05120594D2A0ED25E0FD7F0594
:0903F0001205940CBC08DBC2A04C
:0103F90022E1
:10048900E4FC120590ED25E0FD30A103430501C20E
:0C049900A07F051205940CBC08E8AF051C
:0104A5002234
:0C0583000A08C0F9A4B0999282F8809098
:1002A9008F138D147F071202F97580FFE4FF120284
:1002B900F9E4F5807F061202F9AF137480A80708E4
:1002C9008002C313D8FCF580E4FF1202F97580FFA0
:1002D9007F071202F974082514F8E6F580E4FF1285
:0902E90002F97F037E0002046BA0
:1004EC00538E7F5389F0E4F58A758CDCC28DD28CE7
:0504FC00D2AFD2A922DD
:10050100538EBF53890FE4F58B758DDCC28FD28E6C
:05051100D2AFD2AB22C5
:10055100538EFBE4F5D775D6DC438E10D2AF43AF93
:02056100042272
:10022B00E4F51375B00FC2C2C2C4E5B0640F606BC6
:10023B007F0A7E0012046BE5B0640F605EAFB0EF17
:10024B0024F5601024FE60111460132407701475DC
:10025B00130D8012751309800D7513058008751326
:10026B000180037F002275B0F0D2C2D2C420B40843
:10027B0074032513F513801820B506051305138099
:10028B000F20C2040513800820C40280037F0022C4
:0D029B00E5B0B4F0FB30C2FD30C4FDAF1380
:0102A8002233
:10000300EC4D6011E8497017ED33EC3304600DE4F7
:10001300FCFFFEFD22E933E8330470F802017C1291
:10002300014758046009E4CC248150062850090292
:100033000186284003020183C0E0EB4A7044B98083
:1000430006D0E0FB020172EF4E701CBD8008EBFF8F
:10005300EAFEE9FD80EBE98DF0A4FEE5F00200EC99
:10006300E9CDF9EAFEEBFFEF89F0A4FCE5F0CE89D8
:10007300F0A42EFFE435F0CD89F0A42DFEE435F095
:100083008067EF4E7005BD80D780C3EF8BF0A4ACC3
:10009300F0EE8BF0A42CFCE435F0F8EF8AF0A42CFE
:1000A300E5F038FCE433CB8DF0A42CFCE5F03BF811
:1000B300EE8AF0A42CFCE5F038F8E433CF89F0A401
:1000C3002CFCE5F038CF3400CE89F0A42FFFE5F007
:1000D3003EFEE433C98DF0A42EFEE5F039CD8AF05F
:1000E300A42FFFE5F03EFEE43DFD33D0E0FB5007D7
:1000F3000BBB000F020186EC2CFCEF33FFEE33FE4B
:06010300ED33FD02015E78
:1001090075F020800E75F010800575F0087D007E71
:10011900007F003392D530D503120191EC334010A2
:10012900EF33FFEE33FEED33FDEC33FCD5F0ED227A
:0E013900E5F0247EA2D513CC92E7CDCEFF22B6
:10014700E9D2E7C933E833F892D5EDD2E7CD33ECFE
:0701570033FC5002B2D52277
:10015E00EC30E7100FBF000C0EBE00080DBD000402
:10016E000BEB6014A2D5EB13FCED92E7FD2274FFAE
:10017E00FCFDFEFF22E480F8A2D574FF13FC7D8007
:03018E00E480EF1B
:0300000002019F5B
:0C019F00787FE4F6D8FD7581200201E6AF
:0E019100C3E49FFFE49EFEE49DFDE49CFC227F
:1001AB000205A8E493A3F8E493A34003F68001F2BD
:1001BB0008DFF48029E493A3F85407240CC8C33355
:1001CB00C4540F4420C8834004F456800146F6DF24
:1001DB00E4800B0102040810204080900583E47E2C
:1001EB00019360BCA3FF543F30E509541FFEE49319
:1001FB00A360010ECF54C025E060A840B8E493A3E0
:10020B00FAE493A3F8E493A3C8C582C8CAC583CA0A
:10021B00F0A3C8C582C8CAC583CADFE9DEE780BEC2
:01058F00006B
:00000001FF
