:0B0225003F065B4F666D7D077F6F405A
:1001D200E4FDFCC3ED9FEE6480F8EC64809850135C
:0C01E200751347751202D512FDD513F7F6
:0701EE000DBD00010C80E0D3
:0101F50022E7
:080230007F137E05DEFEDFFAFC
:0102380022A3
:04000E00AD07AC0688
:10001200E4FBEBB40800400302009D900024F828A2
:10002200287302003C02004402004C020054020009
:100032005C02006B02007302008475907F900228BC
:10004200804F7590BF90022980477590DF900226FD
:10005200803F7590EF90022680377590F774252DBA
:10006200F58274023CF58380287590FB90022F8004
:10007200207590FD74252509F58274023508F583F3
:10008200800F7590FE7425250BF5827402350AF5F2
:1000920083E493F580120230E4F5800BEB64086090
:0400A2000302001441
:0100A6002237
:10020900758901758CFE758A0CD2AFD2A9D28C2260
:07023900D288D2A8D2AF2247
:03000300020132C5
:10013200C0E0C0F0C0D075D000C000C004C005C08F
:1001420006C007C2A8050C0511E50CB4071EC28C37
:10015200AC0DAD0E7E0D7FAC1200A78E0F8F107509
:100162000D00750E00750C00D2A9D28CD2A8D00752
:0F017200D006D005D004D000D0D0D0F0D0E032ED
:03000B000201F6F9
:1001F600C0E0758CFE758A0C050EE50E7002050DC5
:03020600D0E03213
:1001AB00E511B42803E4F511AE0FAF107C007D0A06
:1001BB001200A78C0A8D0BAE0FAF107C007D0A12BC
:0701CB0000A78E088F092236
:10018100120239120209E511C39414500A1201AB8B
:100191007F017E0012000EE511D3941440E8120194
:0A01A100AB7F077E0012000E80DC29
:03000000020219E0
:0C021900787FE4F6D8FD758113020181A6
:1000A700C2D5EC30E709B2D5E4C39DFDE49CFCEE74
:1000B70030E715B2D5E4C39FFFE49EFE1200DDC30F
:1000C700E49DFDE49CFC80031200DD30D507C3E40A
:0600D7009FFFE49EFE22E3
:1000DD00BC000BBE0029EF8DF084FFADF022E4CC07
:1000ED00F875F008EF2FFFEE33FEEC33FCEE9DECD0
:1000FD00984005FCEE9DFE0FD5F0E9E4CEFD22ED16
:10010D00F8F5F0EE8420D21CFEADF075F008EF2F5F
:10011D00FFED33FD4007985006D5F0F222C398FD50
:05012D000FD5F0EA22ED
:00000001FF
